{
  "contractName": "User",
  "abi": [
    {
      "constant": true,
      "inputs": [
        {
          "name": "_userAddress",
          "type": "address"
        }
      ],
      "name": "isExitUserAddress",
      "outputs": [
        {
          "name": "isIndeed",
          "type": "bool"
        }
      ],
      "payable": false,
      "stateMutability": "view",
      "type": "function"
    },
    {
      "constant": true,
      "inputs": [
        {
          "name": "_username",
          "type": "string"
        }
      ],
      "name": "isExitUsername",
      "outputs": [
        {
          "name": "isIndeed",
          "type": "bool"
        }
      ],
      "payable": false,
      "stateMutability": "view",
      "type": "function"
    },
    {
      "constant": true,
      "inputs": [
        {
          "name": "_username",
          "type": "string"
        }
      ],
      "name": "findUserAddressByUsername",
      "outputs": [
        {
          "name": "userAddress",
          "type": "address"
        }
      ],
      "payable": false,
      "stateMutability": "view",
      "type": "function"
    },
    {
      "constant": false,
      "inputs": [
        {
          "name": "_userAddress",
          "type": "address"
        },
        {
          "name": "_username",
          "type": "string"
        }
      ],
      "name": "createUser",
      "outputs": [
        {
          "name": "index",
          "type": "uint256"
        }
      ],
      "payable": false,
      "stateMutability": "nonpayable",
      "type": "function"
    },
    {
      "constant": true,
      "inputs": [
        {
          "name": "_userAddress",
          "type": "address"
        }
      ],
      "name": "findUser",
      "outputs": [
        {
          "name": "username",
          "type": "string"
        },
        {
          "name": "time",
          "type": "uint256"
        },
        {
          "name": "index",
          "type": "uint256"
        }
      ],
      "payable": false,
      "stateMutability": "view",
      "type": "function"
    }
  ],
  "bytecode": "0x6060604052341561000f57600080fd5b610c288061001e6000396000f30060606040526004361061006d576000357c0100000000000000000000000000000000000000000000000000000000900463ffffffff168063295db39214610072578063a83db77f1461010f578063c4ec3db614610184578063df9d9024146101d5578063f9bcd54514610295575b600080fd5b341561007d57600080fd5b6100cd600480803590602001908201803590602001908080601f01602080910402602001604051908101604052809392919081815260200183838082843782019150505050505091905050610325565b604051808273ffffffffffffffffffffffffffffffffffffffff1673ffffffffffffffffffffffffffffffffffffffff16815260200191505060405180910390f35b341561011a57600080fd5b61016a600480803590602001908201803590602001908080601f016020809104026020016040519081016040528093929190818152602001838380828437820191505050505050919050506103d1565b604051808215151515815260200191505060405180910390f35b341561018f57600080fd5b6101bb600480803573ffffffffffffffffffffffffffffffffffffffff1690602001909190505061054d565b604051808215151515815260200191505060405180910390f35b34156101e057600080fd5b61020c600480803573ffffffffffffffffffffffffffffffffffffffff16906020019091905050610618565b6040518080602001848152602001838152602001828103825285818151815260200191508051906020019080838360005b8381101561025857808201518184015260208101905061023d565b50505050905090810190601f1680156102855780820380516001836020036101000a031916815260200191505b5094505050505060405180910390f35b34156102a057600080fd5b61030f600480803573ffffffffffffffffffffffffffffffffffffffff1690602001909190803590602001908201803590602001908080601f016020809104026020016040519081016040528093929190818152602001838380828437820191505050505050919050506107a8565b6040518082815260200191505060405180910390f35b6000610330826103d1565b151561033b57600080fd5b6003826040518082805190602001908083835b602083101515610373578051825260208201915060208101905060208303925061034e565b6001836020036101000a038019825116818451168082178552505050505050905001915050908152602001604051809103902060000160009054906101000a900473ffffffffffffffffffffffffffffffffffffffff169050919050565b60008060018054905014156103e95760009050610548565b816040518082805190602001908083835b60208310151561041f57805182526020820191506020810190506020830392506103fa565b6001836020036101000a03801982511681845116808217855250505050505090500191505060405180910390206000191660016003846040518082805190602001908083835b60208310151561048a5780518252602082019150602081019050602083039250610465565b6001836020036101000a0380198251168184511680821785525050505050509050019150509081526020016040518091039020600101548154811015156104cd57fe5b906000526020600020900160405180828054600181600116156101000203166002900480156105335780601f10610511576101008083540402835291820191610533565b820191906000526020600020905b81548152906001019060200180831161051f575b50509150506040518091039020600019161490505b919050565b60008060008054905014156105655760009050610613565b8173ffffffffffffffffffffffffffffffffffffffff166000600260008573ffffffffffffffffffffffffffffffffffffffff1673ffffffffffffffffffffffffffffffffffffffff168152602001908152602001600020600201548154811015156105cd57fe5b906000526020600020900160009054906101000a900473ffffffffffffffffffffffffffffffffffffffff1673ffffffffffffffffffffffffffffffffffffffff161490505b919050565b6106206109f7565b60008061062c8461054d565b151561063757600080fd5b600260008573ffffffffffffffffffffffffffffffffffffffff1673ffffffffffffffffffffffffffffffffffffffff168152602001908152602001600020600001600260008673ffffffffffffffffffffffffffffffffffffffff1673ffffffffffffffffffffffffffffffffffffffff16815260200190815260200160002060010154600260008773ffffffffffffffffffffffffffffffffffffffff1673ffffffffffffffffffffffffffffffffffffffff16815260200190815260200160002060020154828054600181600116156101000203166002900480601f0160208091040260200160405190810160405280929190818152602001828054600181600116156101000203166002900480156107945780601f1061076957610100808354040283529160200191610794565b820191906000526020600020905b81548152906001019060200180831161077757829003601f168201915b505050505092509250925092509193909250565b60006107b38361054d565b1515156107bf57600080fd5b600080548060010182816107d39190610a0b565b9160005260206000209001600085909190916101000a81548173ffffffffffffffffffffffffffffffffffffffff021916908373ffffffffffffffffffffffffffffffffffffffff16021790555050606060405190810160405280838152602001428152602001600160008054905003815250600260008573ffffffffffffffffffffffffffffffffffffffff1673ffffffffffffffffffffffffffffffffffffffff16815260200190815260200160002060008201518160000190805190602001906108a1929190610a37565b506020820151816001015560408201518160020155905050600180548060010182816108cd9190610ab7565b9160005260206000209001600084909190915090805190602001906108f3929190610ae3565b505060408051908101604052808473ffffffffffffffffffffffffffffffffffffffff16815260200160018080549050038152506003836040518082805190602001908083835b60208310151561095f578051825260208201915060208101905060208303925061093a565b6001836020036101000a038019825116818451168082178552505050505050905001915050908152602001604051809103902060008201518160000160006101000a81548173ffffffffffffffffffffffffffffffffffffffff021916908373ffffffffffffffffffffffffffffffffffffffff16021790555060208201518160010155905050600160008054905003905092915050565b602060405190810160405280600081525090565b815481835581811511610a3257818360005260206000209182019101610a319190610b63565b5b505050565b828054600181600116156101000203166002900490600052602060002090601f016020900481019282601f10610a7857805160ff1916838001178555610aa6565b82800160010185558215610aa6579182015b82811115610aa5578251825591602001919060010190610a8a565b5b509050610ab39190610b63565b5090565b815481835581811511610ade57818360005260206000209182019101610add9190610b88565b5b505050565b828054600181600116156101000203166002900490600052602060002090601f016020900481019282601f10610b2457805160ff1916838001178555610b52565b82800160010185558215610b52579182015b82811115610b51578251825591602001919060010190610b36565b5b509050610b5f9190610b63565b5090565b610b8591905b80821115610b81576000816000905550600101610b69565b5090565b90565b610bb191905b80821115610bad5760008181610ba49190610bb4565b50600101610b8e565b5090565b90565b50805460018160011615610100020316600290046000825580601f10610bda5750610bf9565b601f016020900490600052602060002090810190610bf89190610b63565b5b505600a165627a7a72305820ec73641dcf4ffcacfd8c8b6e30f0bdf9140974c5c4280ed79ec5c0968772b5930029",
  "source": "pragma solidity ^0.4.11;\n\n\ncontract User {\n\n    //定义用户数据结构\n    struct UserStruct {\n        string username;\n        uint time;\n        uint index;\n    }\n\n    //定义用户列表数据结构\n    struct UserListStruct {\n        address userAddress;\n        uint index;\n    }\n\n    address[] private userAddresses; //所有地址集合\n    string[] private usernames; //所有用户名集合\n    mapping(address => UserStruct) private userStruct; //账户个人信息\n\n    mapping(string => UserListStruct) private userListStruct; //用户名映射地址\n\n\n    //判断用户地址是否存在\n    function isExitUserAddress(address _userAddress) public constant returns(bool isIndeed) {\n        if (userAddresses.length == 0) return false;\n        return (userAddresses[userStruct[_userAddress].index] == _userAddress);\n    }\n\n    //判断用户名是否存在\n    function isExitUsername(string _username) public constant returns(bool isIndeed) {\n        if (usernames.length == 0) return false;\n        return (keccak256(usernames[userListStruct[_username].index]) == keccak256(_username));\n    }\n\n    //根据用户名查找对于的address\n    function findUserAddressByUsername(string _username) public constant returns (address userAddress) {\n        require(isExitUsername(_username));\n        return userListStruct[_username].userAddress;\n    }\n\n \n    //创建用户信息\n    function createUser(address _userAddress, string _username) public returns (uint index) {\n        require(!isExitUserAddress(_userAddress)); //如果地址已存在则不允许再创建\n\n        userAddresses.push(_userAddress); //地址集合push新地址\n        userStruct[_userAddress] = UserStruct(_username, now, userAddresses.length - 1);\n\n        usernames.push(_username); //用户名集合push新用户\n        userListStruct[_username] = UserListStruct(_userAddress, usernames.length - 1); //用户所对应的地址集合\n\n        return userAddresses.length - 1;\n    }\n\n\n    //获取用户个人信息\n    function findUser(address _userAddress) public constant returns (string username, uint time, uint index) {\n        require(isExitUserAddress(_userAddress));\n        return (\n            userStruct[_userAddress].username,\n            userStruct[_userAddress].time,\n            userStruct[_userAddress].index); \n    }\n\n\n\n}\n",
  "sourcePath": "/Users/sulianggang/Documents/Git/github/web3js-api/contracts/user.sol",
  "compiler": {
    "name": "solc",
    "version": "0.4.19+commit.c4cbbb05.Emscripten.clang"
  },
  "schemaVersion": "2.0.0",
  "updatedAt": "2018-05-11T05:02:14.518Z"
}