{
  "contractName": "User",
  "abi": [
    {
      "constant": true,
      "inputs": [
        {
          "name": "",
          "type": "uint256"
        }
      ],
      "name": "userAddresses",
      "outputs": [
        {
          "name": "",
          "type": "address"
        }
      ],
      "payable": false,
      "stateMutability": "view",
      "type": "function"
    },
    {
      "constant": true,
      "inputs": [
        {
          "name": "_userAddress",
          "type": "address"
        }
      ],
      "name": "isExitUserAddress",
      "outputs": [
        {
          "name": "isIndeed",
          "type": "bool"
        }
      ],
      "payable": false,
      "stateMutability": "view",
      "type": "function"
    },
    {
      "constant": true,
      "inputs": [
        {
          "name": "_username",
          "type": "string"
        }
      ],
      "name": "isExitUsername",
      "outputs": [
        {
          "name": "isIndeed",
          "type": "bool"
        }
      ],
      "payable": false,
      "stateMutability": "view",
      "type": "function"
    },
    {
      "constant": true,
      "inputs": [
        {
          "name": "_username",
          "type": "string"
        }
      ],
      "name": "findUserAddressByUsername",
      "outputs": [
        {
          "name": "userAddress",
          "type": "address"
        }
      ],
      "payable": false,
      "stateMutability": "view",
      "type": "function"
    },
    {
      "constant": false,
      "inputs": [
        {
          "name": "_userAddress",
          "type": "address"
        },
        {
          "name": "_username",
          "type": "string"
        }
      ],
      "name": "createUser",
      "outputs": [
        {
          "name": "index",
          "type": "uint256"
        }
      ],
      "payable": false,
      "stateMutability": "nonpayable",
      "type": "function"
    },
    {
      "constant": true,
      "inputs": [
        {
          "name": "_userAddress",
          "type": "address"
        }
      ],
      "name": "findUser",
      "outputs": [
        {
          "name": "userAddresses",
          "type": "address"
        },
        {
          "name": "username",
          "type": "string"
        },
        {
          "name": "time",
          "type": "uint256"
        },
        {
          "name": "index",
          "type": "uint256"
        }
      ],
      "payable": false,
      "stateMutability": "view",
      "type": "function"
    }
  ],
  "bytecode": "0x6060604052341561000f57600080fd5b610dd28061001e6000396000f300606060405260043610610078576000357c0100000000000000000000000000000000000000000000000000000000900463ffffffff168063295db3921461007d578063502c9bd51461011a578063a83db77f1461017d578063c4ec3db6146101f2578063df9d902414610243578063f9bcd54514610336575b600080fd5b341561008857600080fd5b6100d8600480803590602001908201803590602001908080601f016020809104026020016040519081016040528093929190818152602001838380828437820191505050505050919050506103c6565b604051808273ffffffffffffffffffffffffffffffffffffffff1673ffffffffffffffffffffffffffffffffffffffff16815260200191505060405180910390f35b341561012557600080fd5b61013b6004808035906020019091905050610472565b604051808273ffffffffffffffffffffffffffffffffffffffff1673ffffffffffffffffffffffffffffffffffffffff16815260200191505060405180910390f35b341561018857600080fd5b6101d8600480803590602001908201803590602001908080601f016020809104026020016040519081016040528093929190818152602001838380828437820191505050505050919050506104b1565b604051808215151515815260200191505060405180910390f35b34156101fd57600080fd5b610229600480803573ffffffffffffffffffffffffffffffffffffffff1690602001909190505061062d565b604051808215151515815260200191505060405180910390f35b341561024e57600080fd5b61027a600480803573ffffffffffffffffffffffffffffffffffffffff169060200190919050506106f8565b604051808573ffffffffffffffffffffffffffffffffffffffff1673ffffffffffffffffffffffffffffffffffffffff16815260200180602001848152602001838152602001828103825285818151815260200191508051906020019080838360005b838110156102f85780820151818401526020810190506102dd565b50505050905090810190601f1680156103255780820380516001836020036101000a031916815260200191505b509550505050505060405180910390f35b341561034157600080fd5b6103b0600480803573ffffffffffffffffffffffffffffffffffffffff1690602001909190803590602001908201803590602001908080601f016020809104026020016040519081016040528093929190818152602001838380828437820191505050505050919050506108ef565b6040518082815260200191505060405180910390f35b60006103d1826104b1565b15156103dc57600080fd5b6003826040518082805190602001908083835b60208310151561041457805182526020820191506020810190506020830392506103ef565b6001836020036101000a038019825116818451168082178552505050505050905001915050908152602001604051809103902060000160009054906101000a900473ffffffffffffffffffffffffffffffffffffffff169050919050565b60008181548110151561048157fe5b90600052602060002090016000915054906101000a900473ffffffffffffffffffffffffffffffffffffffff1681565b60008060018054905014156104c95760009050610628565b816040518082805190602001908083835b6020831015156104ff57805182526020820191506020810190506020830392506104da565b6001836020036101000a03801982511681845116808217855250505050505090500191505060405180910390206000191660016003846040518082805190602001908083835b60208310151561056a5780518252602082019150602081019050602083039250610545565b6001836020036101000a0380198251168184511680821785525050505050509050019150509081526020016040518091039020600101548154811015156105ad57fe5b906000526020600020900160405180828054600181600116156101000203166002900480156106135780601f106105f1576101008083540402835291820191610613565b820191906000526020600020905b8154815290600101906020018083116105ff575b50509150506040518091039020600019161490505b919050565b600080600080549050141561064557600090506106f3565b8173ffffffffffffffffffffffffffffffffffffffff166000600260008573ffffffffffffffffffffffffffffffffffffffff1673ffffffffffffffffffffffffffffffffffffffff168152602001908152602001600020600301548154811015156106ad57fe5b906000526020600020900160009054906101000a900473ffffffffffffffffffffffffffffffffffffffff1673ffffffffffffffffffffffffffffffffffffffff161490505b919050565b6000610702610ba1565b60008061070e8561062d565b151561071957600080fd5b600260008673ffffffffffffffffffffffffffffffffffffffff1673ffffffffffffffffffffffffffffffffffffffff16815260200190815260200160002060000160009054906101000a900473ffffffffffffffffffffffffffffffffffffffff16600260008773ffffffffffffffffffffffffffffffffffffffff1673ffffffffffffffffffffffffffffffffffffffff168152602001908152602001600020600101600260008873ffffffffffffffffffffffffffffffffffffffff1673ffffffffffffffffffffffffffffffffffffffff16815260200190815260200160002060020154600260008973ffffffffffffffffffffffffffffffffffffffff1673ffffffffffffffffffffffffffffffffffffffff16815260200190815260200160002060030154828054600181600116156101000203166002900480601f0160208091040260200160405190810160405280929190818152602001828054600181600116156101000203166002900480156108d95780601f106108ae576101008083540402835291602001916108d9565b820191906000526020600020905b8154815290600101906020018083116108bc57829003601f168201915b5050505050925093509350935093509193509193565b60006108fa8361062d565b15151561090657600080fd5b6000805480600101828161091a9190610bb5565b9160005260206000209001600085909190916101000a81548173ffffffffffffffffffffffffffffffffffffffff021916908373ffffffffffffffffffffffffffffffffffffffff160217905550506080604051908101604052808473ffffffffffffffffffffffffffffffffffffffff168152602001838152602001428152602001600160008054905003815250600260008573ffffffffffffffffffffffffffffffffffffffff1673ffffffffffffffffffffffffffffffffffffffff16815260200190815260200160002060008201518160000160006101000a81548173ffffffffffffffffffffffffffffffffffffffff021916908373ffffffffffffffffffffffffffffffffffffffff1602179055506020820151816001019080519060200190610a4b929190610be1565b50604082015181600201556060820151816003015590505060018054806001018281610a779190610c61565b916000526020600020900160008490919091509080519060200190610a9d929190610c8d565b505060408051908101604052808473ffffffffffffffffffffffffffffffffffffffff16815260200160018080549050038152506003836040518082805190602001908083835b602083101515610b095780518252602082019150602081019050602083039250610ae4565b6001836020036101000a038019825116818451168082178552505050505050905001915050908152602001604051809103902060008201518160000160006101000a81548173ffffffffffffffffffffffffffffffffffffffff021916908373ffffffffffffffffffffffffffffffffffffffff16021790555060208201518160010155905050600160008054905003905092915050565b602060405190810160405280600081525090565b815481835581811511610bdc57818360005260206000209182019101610bdb9190610d0d565b5b505050565b828054600181600116156101000203166002900490600052602060002090601f016020900481019282601f10610c2257805160ff1916838001178555610c50565b82800160010185558215610c50579182015b82811115610c4f578251825591602001919060010190610c34565b5b509050610c5d9190610d0d565b5090565b815481835581811511610c8857818360005260206000209182019101610c879190610d32565b5b505050565b828054600181600116156101000203166002900490600052602060002090601f016020900481019282601f10610cce57805160ff1916838001178555610cfc565b82800160010185558215610cfc579182015b82811115610cfb578251825591602001919060010190610ce0565b5b509050610d099190610d0d565b5090565b610d2f91905b80821115610d2b576000816000905550600101610d13565b5090565b90565b610d5b91905b80821115610d575760008181610d4e9190610d5e565b50600101610d38565b5090565b90565b50805460018160011615610100020316600290046000825580601f10610d845750610da3565b601f016020900490600052602060002090810190610da29190610d0d565b5b505600a165627a7a723058203c300f14a7d0959f48070284ae42a696f493982f58dfa44da185c7a7d513c8a10029",
  "source": "pragma solidity ^0.4.11;\n\n\ncontract User {\n\n    //定义用户数据结构\n    struct UserStruct {\n        address userAddress;\n        string username;\n        uint time;\n        uint index;\n    }\n\n    //定义用户列表数据结构\n    struct UserListStruct {\n        address userAddress;\n        uint index;\n    }\n\n    address[] public userAddresses; //所有地址集合\n    string[] private usernames; //所有用户名集合\n    mapping(address => UserStruct) private userStruct; //账户个人信息\n\n    mapping(string => UserListStruct) private userListStruct; //用户名映射地址\n\n\n    //判断用户地址是否存在\n    function isExitUserAddress(address _userAddress) public constant returns(bool isIndeed) {\n        if (userAddresses.length == 0) return false;\n        return (userAddresses[userStruct[_userAddress].index] == _userAddress);\n    }\n\n    //判断用户名是否存在\n    function isExitUsername(string _username) public constant returns(bool isIndeed) {\n        if (usernames.length == 0) return false;\n        return (keccak256(usernames[userListStruct[_username].index]) == keccak256(_username));\n    }\n\n    //根据用户名查找对于的address\n    function findUserAddressByUsername(string _username) public constant returns (address userAddress) {\n        require(isExitUsername(_username));\n        return userListStruct[_username].userAddress;\n    }\n\n \n    //创建用户信息\n    function createUser(address _userAddress, string _username) public returns (uint index) {\n        require(!isExitUserAddress(_userAddress)); //如果地址已存在则不允许再创建\n\n        userAddresses.push(_userAddress); //地址集合push新地址\n        userStruct[_userAddress] = UserStruct(_userAddress, _username, now, userAddresses.length - 1);\n\n        usernames.push(_username); //用户名集合push新用户\n        userListStruct[_username] = UserListStruct(_userAddress, usernames.length - 1); //用户所对应的地址集合\n\n        return userAddresses.length - 1;\n    }\n\n\n    //获取用户个人信息\n    function findUser(address _userAddress) public constant returns (address userAddresses, string username, uint time, uint index) {\n        require(isExitUserAddress(_userAddress));\n        return (\n            userStruct[_userAddress].userAddress,\n            userStruct[_userAddress].username,\n            userStruct[_userAddress].time,\n            userStruct[_userAddress].index); \n    }\n\n\n\n}\n",
  "sourcePath": "/Users/sulianggang/Documents/Git/github/web3js-api/contracts/user.sol",
  "compiler": {
    "name": "solc",
    "version": "0.4.19+commit.c4cbbb05.Emscripten.clang"
  },
  "schemaVersion": "2.0.0",
  "updatedAt": "2018-05-26T02:51:43.765Z"
}